{
  "_format": "hh-sol-artifact-1",
  "contractName": "Genesis",
  "sourceName": "src/contracts/Genesis.sol",
  "abi": [
    {
      "inputs": [],
      "stateMutability": "nonpayable",
      "type": "constructor"
    },
    {
      "anonymous": false,
      "inputs": [
        {
          "indexed": false,
          "internalType": "uint256",
          "name": "id",
          "type": "uint256"
        },
        {
          "indexed": false,
          "internalType": "string",
          "name": "actionType",
          "type": "string"
        },
        {
          "indexed": true,
          "internalType": "address",
          "name": "executor",
          "type": "address"
        },
        {
          "indexed": false,
          "internalType": "uint256",
          "name": "timestamp",
          "type": "uint256"
        }
      ],
      "name": "Action",
      "type": "event"
    },
    {
      "inputs": [
        {
          "internalType": "uint256",
          "name": "id",
          "type": "uint256"
        }
      ],
      "name": "backProject",
      "outputs": [
        {
          "internalType": "bool",
          "name": "",
          "type": "bool"
        }
      ],
      "stateMutability": "payable",
      "type": "function"
    },
    {
      "inputs": [],
      "name": "balance",
      "outputs": [
        {
          "internalType": "uint256",
          "name": "",
          "type": "uint256"
        }
      ],
      "stateMutability": "view",
      "type": "function"
    },
    {
      "inputs": [
        {
          "internalType": "string",
          "name": "title",
          "type": "string"
        },
        {
          "internalType": "string",
          "name": "description",
          "type": "string"
        },
        {
          "internalType": "string",
          "name": "imageURL",
          "type": "string"
        },
        {
          "internalType": "uint256",
          "name": "cost",
          "type": "uint256"
        },
        {
          "internalType": "uint256",
          "name": "expiresAt",
          "type": "uint256"
        }
      ],
      "name": "createProject",
      "outputs": [
        {
          "internalType": "bool",
          "name": "",
          "type": "bool"
        }
      ],
      "stateMutability": "nonpayable",
      "type": "function"
    },
    {
      "inputs": [
        {
          "internalType": "uint256",
          "name": "id",
          "type": "uint256"
        }
      ],
      "name": "deleteProject",
      "outputs": [
        {
          "internalType": "bool",
          "name": "",
          "type": "bool"
        }
      ],
      "stateMutability": "nonpayable",
      "type": "function"
    },
    {
      "inputs": [
        {
          "internalType": "uint256",
          "name": "id",
          "type": "uint256"
        }
      ],
      "name": "getBackers",
      "outputs": [
        {
          "components": [
            {
              "internalType": "address",
              "name": "owner",
              "type": "address"
            },
            {
              "internalType": "uint256",
              "name": "contribution",
              "type": "uint256"
            },
            {
              "internalType": "uint256",
              "name": "timestamp",
              "type": "uint256"
            },
            {
              "internalType": "bool",
              "name": "refunded",
              "type": "bool"
            }
          ],
          "internalType": "struct Genesis.backerStruct[]",
          "name": "",
          "type": "tuple[]"
        }
      ],
      "stateMutability": "view",
      "type": "function"
    },
    {
      "inputs": [
        {
          "internalType": "uint256",
          "name": "id",
          "type": "uint256"
        }
      ],
      "name": "getProject",
      "outputs": [
        {
          "components": [
            {
              "internalType": "uint256",
              "name": "id",
              "type": "uint256"
            },
            {
              "internalType": "address",
              "name": "owner",
              "type": "address"
            },
            {
              "internalType": "string",
              "name": "title",
              "type": "string"
            },
            {
              "internalType": "string",
              "name": "description",
              "type": "string"
            },
            {
              "internalType": "string",
              "name": "imageURL",
              "type": "string"
            },
            {
              "internalType": "uint256",
              "name": "cost",
              "type": "uint256"
            },
            {
              "internalType": "uint256",
              "name": "raised",
              "type": "uint256"
            },
            {
              "internalType": "uint256",
              "name": "timestamp",
              "type": "uint256"
            },
            {
              "internalType": "uint256",
              "name": "expiresAt",
              "type": "uint256"
            },
            {
              "internalType": "uint256",
              "name": "backers",
              "type": "uint256"
            },
            {
              "internalType": "enum Genesis.statusEnum",
              "name": "status",
              "type": "uint8"
            }
          ],
          "internalType": "struct Genesis.projectStruct",
          "name": "",
          "type": "tuple"
        }
      ],
      "stateMutability": "view",
      "type": "function"
    },
    {
      "inputs": [],
      "name": "getProjects",
      "outputs": [
        {
          "components": [
            {
              "internalType": "uint256",
              "name": "id",
              "type": "uint256"
            },
            {
              "internalType": "address",
              "name": "owner",
              "type": "address"
            },
            {
              "internalType": "string",
              "name": "title",
              "type": "string"
            },
            {
              "internalType": "string",
              "name": "description",
              "type": "string"
            },
            {
              "internalType": "string",
              "name": "imageURL",
              "type": "string"
            },
            {
              "internalType": "uint256",
              "name": "cost",
              "type": "uint256"
            },
            {
              "internalType": "uint256",
              "name": "raised",
              "type": "uint256"
            },
            {
              "internalType": "uint256",
              "name": "timestamp",
              "type": "uint256"
            },
            {
              "internalType": "uint256",
              "name": "expiresAt",
              "type": "uint256"
            },
            {
              "internalType": "uint256",
              "name": "backers",
              "type": "uint256"
            },
            {
              "internalType": "enum Genesis.statusEnum",
              "name": "status",
              "type": "uint8"
            }
          ],
          "internalType": "struct Genesis.projectStruct[]",
          "name": "",
          "type": "tuple[]"
        }
      ],
      "stateMutability": "view",
      "type": "function"
    },
    {
      "inputs": [],
      "name": "owner",
      "outputs": [
        {
          "internalType": "address",
          "name": "",
          "type": "address"
        }
      ],
      "stateMutability": "view",
      "type": "function"
    },
    {
      "inputs": [
        {
          "internalType": "uint256",
          "name": "id",
          "type": "uint256"
        }
      ],
      "name": "payOutProject",
      "outputs": [
        {
          "internalType": "bool",
          "name": "",
          "type": "bool"
        }
      ],
      "stateMutability": "nonpayable",
      "type": "function"
    },
    {
      "inputs": [],
      "name": "projectCount",
      "outputs": [
        {
          "internalType": "uint256",
          "name": "",
          "type": "uint256"
        }
      ],
      "stateMutability": "view",
      "type": "function"
    },
    {
      "inputs": [
        {
          "internalType": "uint256",
          "name": "",
          "type": "uint256"
        }
      ],
      "name": "projectExist",
      "outputs": [
        {
          "internalType": "bool",
          "name": "",
          "type": "bool"
        }
      ],
      "stateMutability": "view",
      "type": "function"
    },
    {
      "inputs": [
        {
          "internalType": "uint256",
          "name": "id",
          "type": "uint256"
        }
      ],
      "name": "requestRefund",
      "outputs": [
        {
          "internalType": "bool",
          "name": "",
          "type": "bool"
        }
      ],
      "stateMutability": "nonpayable",
      "type": "function"
    },
    {
      "inputs": [],
      "name": "stats",
      "outputs": [
        {
          "internalType": "uint256",
          "name": "totalProjects",
          "type": "uint256"
        },
        {
          "internalType": "uint256",
          "name": "totalBacking",
          "type": "uint256"
        },
        {
          "internalType": "uint256",
          "name": "totalDonations",
          "type": "uint256"
        }
      ],
      "stateMutability": "view",
      "type": "function"
    },
    {
      "inputs": [
        {
          "internalType": "uint256",
          "name": "id",
          "type": "uint256"
        },
        {
          "internalType": "string",
          "name": "title",
          "type": "string"
        },
        {
          "internalType": "string",
          "name": "description",
          "type": "string"
        },
        {
          "internalType": "string",
          "name": "imageURL",
          "type": "string"
        },
        {
          "internalType": "uint256",
          "name": "expiresAt",
          "type": "uint256"
        }
      ],
      "name": "updateProject",
      "outputs": [
        {
          "internalType": "bool",
          "name": "",
          "type": "bool"
        }
      ],
      "stateMutability": "nonpayable",
      "type": "function"
    }
  ],
  "bytecode": "0x608060405234801561001057600080fd5b50600080546001600160a01b031916331790556120d9806100326000396000f3fe6080604052600436106100dd5760003560e01c8063a4b2409e1161007f578063c9168b7211610059578063c9168b721461024c578063d80528ae14610279578063dcc60128146102b3578063f0f3f2c8146102d557600080fd5b8063a4b2409e146101f6578063b531dcba14610216578063b69ef8a81461023657600080fd5b80638593054b116100bb5780638593054b1461015b5780638da5cb5b1461018b5780639a3fa8c7146101c35780639f39a194146101e357600080fd5b8063056c29ee146100e257806336fbad26146101175780634cd0cb281461013b575b600080fd5b3480156100ee57600080fd5b506101026100fd366004611c23565b610302565b60405190151581526020015b60405180910390f35b34801561012357600080fd5b5061012d60015481565b60405190815260200161010e565b34801561014757600080fd5b50610102610156366004611cbd565b610765565b34801561016757600080fd5b50610102610176366004611cbd565b60096020526000908152604090205460ff1681565b34801561019757600080fd5b506000546101ab906001600160a01b031681565b6040516001600160a01b03909116815260200161010e565b3480156101cf57600080fd5b506101026101de366004611cd6565b6108e1565b6101026101f1366004611cbd565b610b58565b34801561020257600080fd5b50610102610211366004611cbd565b610f65565b34801561022257600080fd5b50610102610231366004611cbd565b61105c565b34801561024257600080fd5b5061012d60025481565b34801561025857600080fd5b5061026c610267366004611cbd565b61114b565b60405161010e9190611d70565b34801561028557600080fd5b5060035460045460055461029892919083565b6040805193845260208401929092529082015260600161010e565b3480156102bf57600080fd5b506102c86111ed565b60405161010e9190611f29565b3480156102e157600080fd5b506102f56102f0366004611cbd565b611488565b60405161010e9190611f8b565b6000808651116103515760405162461bcd60e51b81526020600482015260156024820152745469746c652063616e6e6f7420626520656d70747960581b60448201526064015b60405180910390fd5b60008551116103a25760405162461bcd60e51b815260206004820152601b60248201527f4465736372697074696f6e2063616e6e6f7420626520656d70747900000000006044820152606401610348565b60008451116103ee5760405162461bcd60e51b8152602060048201526018602482015277496d61676555524c2063616e6e6f7420626520656d70747960401b6044820152606401610348565b600083116104345760405162461bcd60e51b8152602060048201526013602482015272436f73742063616e6e6f74206265207a65726f60681b6044820152606401610348565b61043c611a74565b600180548252336020808401918252604084018a8152606085018a90526080850189905260a085018890524260e0860152610100850187905260068054948501815560005284517ff652222313e28459528d920b65115c16c04f3efc82aaedc97be59f3f377c0d3f600b90950294850190815592517ff652222313e28459528d920b65115c16c04f3efc82aaedc97be59f3f377c0d40850180546001600160a01b0319166001600160a01b039092169190911790555180518594610526937ff652222313e28459528d920b65115c16c04f3efc82aaedc97be59f3f377c0d41909101920190611ae7565b5060608201518051610542916003840191602090910190611ae7565b506080820151805161055e916004840191602090910190611ae7565b5060a0820151600582015560c0820151600682015560e0820151600782015561010082015160088201556101208201516009820155610140820151600a8201805460ff191660018360048111156105b7576105b7611e2c565b021790555050600180546000908152600960209081526040808320805460ff1916851790553383526007825280832080548086018255908452928290208651600b909402019283558582015193830180546001600160a01b0319166001600160a01b0390951694909417909355918401518051859450919261064192600285019290910190611ae7565b506060820151805161065d916003840191602090910190611ae7565b5060808201518051610679916004840191602090910190611ae7565b5060a0820151600582015560c0820151600682015560e0820151600782015561010082015160088201556101208201516009820155610140820151600a8201805460ff191660018360048111156106d2576106d2611e2c565b021790555050506001600360000160008282546106ef9190611fbb565b90915550506001805433916000805160206120848339815191529190600061071683611fd3565b9091555060408051918252606060208301819052600f908301526e141493d29150d50810d49150551151608a1b6080830152429082015260a00160405180910390a25060019695505050505050565b6000806006838154811061077b5761077b611fee565b60009182526020909120600a600b90920201015460ff1660048111156107a3576107a3611e2c565b146107eb5760405162461bcd60e51b8152602060048201526018602482015277141c9bda9958dd081b9bc81b1bdb99d95c881bdc195b995960421b6044820152606401610348565b600682815481106107fe576107fe611fee565b60009182526020909120600b90910201600101546001600160a01b031633146108395760405162461bcd60e51b815260040161034890612004565b60036006838154811061084e5761084e611fee565b60009182526020909120600a600b9092020101805460ff1916600183600481111561087b5761087b611e2c565b021790555061088982611768565b60408051838152606060208201819052600f908201526e141493d29150d50811115311551151608a1b6080820152428183015290513391600080516020612084833981519152919081900360a00190a2506001919050565b6000600686815481106108f6576108f6611fee565b60009182526020909120600b90910201600101546001600160a01b031633146109315760405162461bcd60e51b815260040161034890612004565b600085511161097a5760405162461bcd60e51b81526020600482015260156024820152745469746c652063616e6e6f7420626520656d70747960581b6044820152606401610348565b60008451116109cb5760405162461bcd60e51b815260206004820152601b60248201527f4465736372697074696f6e2063616e6e6f7420626520656d70747900000000006044820152606401610348565b6000835111610a175760405162461bcd60e51b8152602060048201526018602482015277496d61676555524c2063616e6e6f7420626520656d70747960401b6044820152606401610348565b8460068781548110610a2b57610a2b611fee565b90600052602060002090600b02016002019080519060200190610a4f929190611ae7565b508360068781548110610a6457610a64611fee565b90600052602060002090600b02016003019080519060200190610a88929190611ae7565b508260068781548110610a9d57610a9d611fee565b90600052602060002090600b02016004019080519060200190610ac1929190611ae7565b508160068781548110610ad657610ad6611fee565b90600052602060002090600b020160080181905550336001600160a01b03166000805160206120848339815191528742604051610b44929190918252606060208301819052600f908301526e141493d29150d50815541110551151608a1b6080830152604082015260a00190565b60405180910390a250600195945050505050565b6000803411610ba95760405162461bcd60e51b815260206004820152601f60248201527f4574686572206d7573742062652067726561746572207468616e207a65726f006044820152606401610348565b60008281526009602052604090205460ff16610bfb5760405162461bcd60e51b8152602060048201526011602482015270141c9bda9958dd081b9bdd08199bdd5b99607a1b6044820152606401610348565b600060068381548110610c1057610c10611fee565b60009182526020909120600a600b90920201015460ff166004811115610c3857610c38611e2c565b14610c805760405162461bcd60e51b8152602060048201526018602482015277141c9bda9958dd081b9bc81b1bdb99d95c881bdc195b995960421b6044820152606401610348565b600160036001016000828254610c969190611fbb565b909155505060058054349190600090610cb0908490611fbb565b925050819055503460068381548110610ccb57610ccb611fee565b90600052602060002090600b02016006016000828254610ceb9190611fbb565b92505081905550600160068381548110610d0757610d07611fee565b90600052602060002090600b02016009016000828254610d279190611fbb565b9091555050600082815260086020908152604080832081516080808201845233808352348387019081524284870181815260608087018b8152885460018082018b55998d529b8b902097516004909c0290970180546001600160a01b0319166001600160a01b03909c169b909b178b559251968a01969096559451600289015592516003909701805460ff1916971515979097179096558351888152948501829052600e918501919091526d141493d29150d508109050d2d15160921b90840152908201526000805160206120848339815191529060a00160405180910390a260068281548110610e1a57610e1a611fee565b90600052602060002090600b02016005015460068381548110610e3f57610e3f611fee565b90600052602060002090600b02016006015410610eea57600160068381548110610e6b57610e6b611fee565b60009182526020909120600a600b9092020101805460ff19166001836004811115610e9857610e98611e2c565b021790555060068281548110610eb057610eb0611fee565b90600052602060002090600b02016006015460026000828254610ed39190611fbb565b90915550610ee29050826118d6565b506001919050565b60068281548110610efd57610efd611fee565b90600052602060002090600b0201600801544210610ee257600260068381548110610f2a57610f2a611fee565b60009182526020909120600a600b9092020101805460ff19166001836004811115610f5757610f57611e2c565b0217905550610ee282611768565b6000600260068381548110610f7c57610f7c611fee565b60009182526020909120600a600b90920201015460ff166004811115610fa457610fa4611e2c565b141580610fec5750600360068381548110610fc157610fc1611fee565b60009182526020909120600a600b90920201015460ff166004811115610fe957610fe9611e2c565b14155b6110475760405162461bcd60e51b815260206004820152602660248201527f50726f6a656374206e6f74206d61726b656420617320726576657274206f722060448201526564656c65746560d01b6064820152608401610348565b600260068381548110610f2a57610f2a611fee565b600060016006838154811061107357611073611fee565b60009182526020909120600a600b90920201015460ff16600481111561109b5761109b611e2c565b146110df5760405162461bcd60e51b8152602060048201526014602482015273141c9bda9958dd081b9bdd081054141493d5915160621b6044820152606401610348565b600682815481106110f2576110f2611fee565b60009182526020909120600b90910201600101546001600160a01b031633148061112657506000546001600160a01b031633145b6111425760405162461bcd60e51b815260040161034890612004565b610ee2826118d6565b606060086000838152602001908152602001600020805480602002602001604051908101604052809291908181526020016000905b828210156111e2576000848152602090819020604080516080810182526004860290920180546001600160a01b03168352600180820154848601526002820154928401929092526003015460ff16151560608301529083529092019101611180565b505050509050919050565b60606006805480602002602001604051908101604052809291908181526020016000905b8282101561147f5760008481526020908190206040805161016081018252600b86029092018054835260018101546001600160a01b0316938301939093526002830180549293929184019161126590612031565b80601f016020809104026020016040519081016040528092919081815260200182805461129190612031565b80156112de5780601f106112b3576101008083540402835291602001916112de565b820191906000526020600020905b8154815290600101906020018083116112c157829003601f168201915b505050505081526020016003820180546112f790612031565b80601f016020809104026020016040519081016040528092919081815260200182805461132390612031565b80156113705780601f1061134557610100808354040283529160200191611370565b820191906000526020600020905b81548152906001019060200180831161135357829003601f168201915b5050505050815260200160048201805461138990612031565b80601f01602080910402602001604051908101604052809291908181526020018280546113b590612031565b80156114025780601f106113d757610100808354040283529160200191611402565b820191906000526020600020905b8154815290600101906020018083116113e557829003601f168201915b505050918352505060058201546020820152600682015460408201526007820154606082015260088201546080820152600982015460a0820152600a82015460c09091019060ff16600481111561145b5761145b611e2c565b600481111561146c5761146c611e2c565b8152505081526020019060010190611211565b50505050905090565b611490611a74565b60008281526009602052604090205460ff166114e25760405162461bcd60e51b8152602060048201526011602482015270141c9bda9958dd081b9bdd08199bdd5b99607a1b6044820152606401610348565b600682815481106114f5576114f5611fee565b90600052602060002090600b020160405180610160016040529081600082015481526020016001820160009054906101000a90046001600160a01b03166001600160a01b03166001600160a01b0316815260200160028201805461155890612031565b80601f016020809104026020016040519081016040528092919081815260200182805461158490612031565b80156115d15780601f106115a6576101008083540402835291602001916115d1565b820191906000526020600020905b8154815290600101906020018083116115b457829003601f168201915b505050505081526020016003820180546115ea90612031565b80601f016020809104026020016040519081016040528092919081815260200182805461161690612031565b80156116635780601f1061163857610100808354040283529160200191611663565b820191906000526020600020905b81548152906001019060200180831161164657829003601f168201915b5050505050815260200160048201805461167c90612031565b80601f01602080910402602001604051908101604052809291908181526020018280546116a890612031565b80156116f55780601f106116ca576101008083540402835291602001916116f5565b820191906000526020600020905b8154815290600101906020018083116116d857829003601f168201915b505050918352505060058201546020820152600682015460408201526007820154606082015260088201546080820152600982015460a0820152600a82015460c09091019060ff16600481111561174e5761174e611e2c565b600481111561175f5761175f611e2c565b90525092915050565b60005b6000828152600860205260409020548110156118d25760008281526008602052604081208054839081106117a1576117a1611fee565b6000918252602080832060049092029091015485835260089091526040822080546001600160a01b03909216935090849081106117e0576117e0611fee565b9060005260206000209060040201600101549050600160086000868152602001908152602001600020848154811061181a5761181a611fee565b906000526020600020906004020160030160006101000a81548160ff0219169083151502179055504260086000868152602001908152602001600020848154811061186757611867611fee565b9060005260206000209060040201600201819055506118868282611a0f565b60016003600101600082825461189c919061206c565b9091555050600580548291906000906118b690849061206c565b92505081905550505080806118ca90611fd3565b91505061176b565b5050565b6000600682815481106118eb576118eb611fee565b90600052602060002090600b020160060154905060046006838154811061191457611914611fee565b60009182526020909120600a600b9092020101805460ff1916600183600481111561194157611941611e2c565b021790555061197f6006838154811061195c5761195c611fee565b600091825260209091206001600b9092020101546001600160a01b031682611a0f565b6006828154811061199257611992611fee565b90600052602060002090600b020160060154600260008282546119b5919061206c565b9091555050604080518381526060602082018190526010908201526f141493d29150d508141052510813d55560821b6080820152428183015290513391600080516020612084833981519152919081900360a00190a25050565b6000826001600160a01b03168260405160006040518083038185875af1925050503d8060008114611a5c576040519150601f19603f3d011682016040523d82523d6000602084013e611a61565b606091505b5050905080611a6f57600080fd5b505050565b6040518061016001604052806000815260200160006001600160a01b03168152602001606081526020016060815260200160608152602001600081526020016000815260200160008152602001600081526020016000815260200160006004811115611ae257611ae2611e2c565b905290565b828054611af390612031565b90600052602060002090601f016020900481019282611b155760008555611b5b565b82601f10611b2e57805160ff1916838001178555611b5b565b82800160010185558215611b5b579182015b82811115611b5b578251825591602001919060010190611b40565b50611b67929150611b6b565b5090565b5b80821115611b675760008155600101611b6c565b634e487b7160e01b600052604160045260246000fd5b600082601f830112611ba757600080fd5b813567ffffffffffffffff80821115611bc257611bc2611b80565b604051601f8301601f19908116603f01168101908282118183101715611bea57611bea611b80565b81604052838152866020858801011115611c0357600080fd5b836020870160208301376000602085830101528094505050505092915050565b600080600080600060a08688031215611c3b57600080fd5b853567ffffffffffffffff80821115611c5357600080fd5b611c5f89838a01611b96565b96506020880135915080821115611c7557600080fd5b611c8189838a01611b96565b95506040880135915080821115611c9757600080fd5b50611ca488828901611b96565b9598949750949560608101359550608001359392505050565b600060208284031215611ccf57600080fd5b5035919050565b600080600080600060a08688031215611cee57600080fd5b85359450602086013567ffffffffffffffff80821115611d0d57600080fd5b611d1989838a01611b96565b95506040880135915080821115611d2f57600080fd5b611d3b89838a01611b96565b94506060880135915080821115611d5157600080fd5b50611d5e88828901611b96565b95989497509295608001359392505050565b602080825282518282018190526000919060409081850190868401855b82811015611dd257815180516001600160a01b031685528681015187860152858101518686015260609081015115159085015260809093019290850190600101611d8d565b5091979650505050505050565b6000815180845260005b81811015611e0557602081850181015186830182015201611de9565b81811115611e17576000602083870101525b50601f01601f19169290920160200192915050565b634e487b7160e01b600052602160045260246000fd5b60058110611e6057634e487b7160e01b600052602160045260246000fd5b9052565b6000610160825184526020830151611e8760208601826001600160a01b03169052565b506040830151816040860152611e9f82860182611ddf565b91505060608301518482036060860152611eb98282611ddf565b91505060808301518482036080860152611ed38282611ddf565b91505060a083015160a085015260c083015160c085015260e083015160e085015261010080840151818601525061012080840151818601525061014080840151611f1f82870182611e42565b5090949350505050565b6000602080830181845280855180835260408601915060408160051b870101925083870160005b82811015611f7e57603f19888603018452611f6c858351611e64565b94509285019290850190600101611f50565b5092979650505050505050565b602081526000611f9e6020830184611e64565b9392505050565b634e487b7160e01b600052601160045260246000fd5b60008219821115611fce57611fce611fa5565b500190565b6000600019821415611fe757611fe7611fa5565b5060010190565b634e487b7160e01b600052603260045260246000fd5b602080825260139082015272556e617574686f72697a656420456e7469747960681b604082015260600190565b600181811c9082168061204557607f821691505b6020821081141561206657634e487b7160e01b600052602260045260246000fd5b50919050565b60008282101561207e5761207e611fa5565b50039056feaee8e5d3bbb2f71a951b5632cee20f7ac487b9f8ab4f66a236f7694b13af7c6aa2646970667358221220af8155e3ee92269a6ac0a10746e260ec987f3a0936265f6f3c134b496bd8054964736f6c634300080b0033",
  "linkReferences": {},
  "deployedLinkReferences": {}
}